:100000000C9456000C9456040C9456040C9456040C
:100010000C9456040C9456040C9456040C945604F8
:100020000C9456040C9456040C9456040C945604E8
:100030000C9456040C9456040C9456040C945604D8
:100040000C9456040C9456040C9456040C945604C8
:100050000C9456040C9456040C9456040C945604B8
:100060000C9456040C9456040C9456040C945604A8
:100070000C9456040C9456040C9456040C94560498
:100080000C9456040C9456040C9456040C94560488
:100090000C9456040C9456040C9456040C94560478
:1000A0000C9456040C9456040C94560411241FBE50
:1000B000CFEFCDBFD7E2DEBF0E94FE030C940B044E
:0400C000F894FFCFE2
:1000C4008F929F92AF92BF92CF92DF92EF92FF9264
:1000D40080E00E94800120E030E040E251E40E9490
:1000E4004F044B015C0182E00E94800120E030E07B
:1000F40040E251E40E944F046B017C0120E030E0B7
:1001040040E85FE3C501B4010E944604181694F563
:1001140080E88093050681E00E94800120E030E0C1
:100124004CE452E40E944B044B015C0126E933E4A5
:100134004BE85CE30E94410488234CF4809118034B
:100144009091190360E001960E94EF031BC026E919
:1001540033E44BE85CE3C501B4010E94460418167D
:100164008CF4809118039091190360E001970E9428
:10017400EF0308C080E88093060660E080E090E02A
:100184000E94EF0320E030E040E85FE3C701B601DE
:100194000E944604181694F580E48093050683E0D3
:1001A4000E94800120E030E04CE452E40E944B04C1
:1001B4006B017C0126E933E44BE85CE30E944104D3
:1001C40088234CF480911A0390911B0361E00196FB
:1001D4000E94EF031BC026E933E44BE85CE3C7014C
:1001E400B6010E94460418168CF480911A0390916B
:1001F4001B0361E001970E94EF0308C080E4809331
:10020400060661E080E090E00E94EF03FF90EF902B
:0E021400DF90CF90BF90AF909F908F90089595
:1002220010C00E942D0458F00E94260440F029F4C8
:100232005F3F29F00C943B0451110C9435040C944B
:1002420053040E945A0368F39923B1F3552391F39F
:10025200951B550BBB27AA2762177307840738F033
:100262009F5F5F4F220F331F441FAA1FA9F335D090
:100272000E2E3AF0E0E832D091505040E695001C44
:10028200CAF72BD0FE2F29D0660F771F881FBB1FFE
:10029200261737074807AB07B0E809F0BB0B802DDC
:1002A200BF01FF2793585F4F3AF09E3F510578F008
:1002B2000C943B040C9435045F3FE4F3983ED4F372
:1002C200869577956795B795F7959F5FC9F7880FDC
:1002D200911D9695879597F90895E1E0660F771F2E
:1002E200881FBB1F621773078407BA0720F0621BBF
:0E02F200730B840BBA0BEE1F88F7E09508958E
:10030000EF92FF920F931F93CF93DF93CDB7DEB79A
:10031000C857D109CDBFDEBFE82EF12C31C00F2D5B
:1003200010E08E2D0E94FC02BC0180E090E00E9453
:10033000BF02000F111F000F111F21E030E02C0F32
:100340003D1F020F131FF801608371838283938323
:1003500020E030E04AE253E40E941F0420E030EF46
:100360004FE755E40E944B0427EC3BE447E050E4A0
:100370000E944F04F8016083718382839383F39416
:10038000FDE1FF1560F610E060E070E0CB0113C006
:10039000E12FF0E0EE0FFF1FEE0FFF1F21E030E036
:1003A0002C0F3D1FE20FF31F2081318142815381C9
:1003B0000E9420041F5F1E3158F320E030E040EF20
:1003C00051E40E944B04C858DF4FCDBFDEBFDF9120
:0C03D000CF911F910F91FF90EF900895C6
:1003DC000FC00E94260438F00E942D0420F09523B3
:1003EC0011F00C943B040C94530411240C9435041C
:1003FC000E945A0370F3959FC1F3950F50E0551F5F
:10040C00629FF001729FBB27F00DB11D639FAA275D
:10041C00F00DB11DAA1F649F6627B00DA11D661FAC
:10042C00829F2227B00DA11D621F739FB00DA11DCD
:10043C00621F839FA00D611D221F749F3327A00D87
:10044C00611D231F849F600D211D822F762F6A2F23
:10045C0011249F5750409AF0F1F088234AF0EE0F88
:10046C00FF1FBB1F661F771F881F91505040A9F7B5
:10047C009E3F510580F00C943B040C9435045F3F77
:10048C00E4F3983ED4F3869577956795B795F795F1
:10049C00E7959F5FC1F7FE2B880F911D9695879569
:0404AC0097F908951F
:1004B00011C00E94260438F00E942D0420F039F467
:1004C0009F3F19F426F40C9453040EF4E095E7FBD7
:1004D0000C943B04E92F0E945A0358F3BA176207A1
:1004E00073078407950720F079F4A6F50C9434047B
:1004F0000EF4E0950B2EBA2FA02D0B01B90190013F
:100500000C01CA01A0011124FF27591B99F0593F82
:1005100050F4503E68F11A16F040A22F232F342FCA
:100520004427585FF3CF469537952795A795F04018
:100530005395C9F77EF41F16BA0B620B730B840B2D
:10054000BAF09150A1F0FF0FBB1F661F771F881FE5
:10055000C2F70EC0BA0F621F731F841F48F487953D
:1005600077956795B795F7959E3F08F0B0CF93952F
:0E057000880F08F09927EE0F9795879508954C
:10057E00E89409C097FB3EF490958095709561952F
:10058E007F4F8F4F9F4F9923A9F0F92F96E9BB27E5
:10059E009395F695879577956795B795F111F8CF61
:1005AE00FAF4BB0F11F460FF1BC06F5F7F4F8F4FCC
:1005BE009F4F16C0882311F096E911C0772321F0C2
:1005CE009EE8872F762F05C0662371F096E8862F5A
:1005DE0070E060E02AF09A95660F771F881FDAF7B1
:0A05EE00880F9695879597F90895F8
:1005F800813051F028F0823059F0833069F02FC0F3
:1006080080E4809321020BC088E48093210207C014
:1006180080E58093210203C088E580932102E0E011
:10062800F2E080818160808380E090E001C00196E3
:10063800883E23E09207DCF3E0E0F2E0808184600A
:1006480080838091060280FFFCCFE0E0F2E024A1E5
:1006580035A1868181708683822F932F089580E04B
:0406680090E0089581
:10066C00990F0008550FAA0BE0E8FEEF16161706B7
:10067C00E807F907C0F012161306E407F50798F01F
:10068C00621B730B840B950B39F40A2661F0232B38
:10069C00242B252B21F408950A2609F4A140A695B4
:0806AC008FEF811D811D0895EF
:1006B40057FD9058440F551F59F05F3F71F047950F
:1006C400880F97FB991F61F09F3F79F087950895F4
:1006D400121613061406551FF2CF4695F1DF08C013
:1006E400161617061806991FF1CF86957105610530
:0406F40008940895C9
:1006F800E2E6F6E081E0808382E0808384E0808324
:1007080088E08083E0E0F2E087E08483828182836E
:1007180082818061828380E581A380A1816080A33A
:0E07280081A1876081A3808181608083089514
:10073600E0E4F6E0818181608183A0E6B6E011966F
:100746008C911197806811968C93A0E0B6E080E8B2
:1007560011968C93119780E411968C938581816014
:0407660085830895EA
:10076A0084E08093420688E08093410680934506A0
:10077A00E0ECF8E08781806D8783868183688683D1
:0E078A008481836084838381886183830895E2
:10079800E0E5F0E08081826080838091510081FFF4
:1007A800FCCF88ED84BFE0E4F0E081E08083118233
:0407B800118208950D
:1007BC00092E0394000C11F4882352F0BB0F40F463
:1007CC00BF2B11F460FF04C06F5F7F4F8F4F9F4FA3
:0207DC0008957E
:1007DE00662319F0613031F00895809318039093D9
:0E07EE001903089580931A0390931B03089536
:1007FC000E94CC030E949B030E94B5030E947C03C1
:0A080C000E9416040E946200FDCF56
:10081600EC010E945B040E945A04CE010E945C0413
:06082600CE010E945804FF
:10082C00E0E0F3E088E0828380E481838DE08083E4
:02083C0008951D
:0E083E005058BB27AA270E9458020C94DE03D4
:0E084C0000240A9416161706180609060895C9
:0E085A0000240A9412161306140605060895CB
:0E086800E894BB2766277727CB0197F9089500
:0C08760097F99F6780E870E060E008954B
:0A0882000E94360308F481E0089597
:0A088C000E94360308F48FEF089570
:080896000E9411010C94DE0325
:08089E000E94EE010C94DE0340
:0608A6009FEF80EC0895B5
:0408AC000C940000A8
:0408B0000E94600042
:0208B4000895A5
:0208B6000895A3
:0208B8000895A1
:00000001FF
