:100000000C9456000C94C6000C94C6000C94C600C8
:100010000C94C6000C94C6000C94C6000C94C60048
:100020000C94C6000C94C6000C94C6000C94C60038
:100030000C94C6000C94C6000C94C6000C94C60028
:100040000C94C6000C94C6000C94C6000C94C60018
:100050000C94C6000C94C6000C94C6000C94C60008
:100060000C94C6000C94C6000C94C6000C94C600F8
:100070000C94C6000C94C6000C94C6000C94C600E8
:100080000C94C6000C94C6000C94C6000C94C600D8
:100090000C94C6000C94C6000C94C6000C94C600C8
:1000A0000C94C6000C94C6000C94C60011241FBE0C
:1000B000CFEFCDBFD7E2DEBF0E9479000C94BB002A
:0400C000F894FFCFE2
:1000C40084E08093420688E080934106809345064D
:1000D400E0ECF8E08781806D87838681836886837E
:0E00E40084818360848383818861838308958F
:1000F2000E948C000E949E000E94620088E40E947E
:10010200AF0089E40E94AF0081E20E94AF0085E166
:060112000E94AF00F3CFD4
:10011800E0E5F0E08081826080838091510081FF7A
:10012800FCCF88ED84BFE0E4F0E081E080831182B9
:040138001182089593
:10013C00E0E4F6E0818181608183A0E6B6E011966F
:10014C008C911197806811968C9385818160858341
:02015C00089504
:10015E008093C0088091C10886FFFCCFE0ECF8E0E8
:08016E00818180648183089502
:10017600EC010E94CB000E94CA00CE010E94CC0076
:06018600CE010E94C8003A
:04018C000C940000CF
:040190000E94600069
:020194000895CC
:020196000895CA
:020198000895C8
:00000001FF
